:020000040800F2
:10000000700800209101000889120008851100087D
:1000100000000000000000000000000000000000E0
:10002000000000000000000000000000691400084B
:1000300000000000000000008B1200086B14000894
:10004000A301000800000000A3010008A3010008AC
:10005000A3010008A3010008A3010008A3010008F0
:1000600000000000A3010008A3010008A30100088C
:10007000A3010008A3010008A3010008000000007C
:10008000A3010008A301000800000000A30100086C
:10009000A3010008A3010008A3010008A3010008B0
:1000A000A3010008A3010008A3010008A3010008A0
:1000B000A301000800F002F800F03EF80CA030C8E0
:1000C000083824182D18A246671EAB4654465D46D4
:1000D000AC4201D100F030F87E460F3E0FCCB64660
:1000E0000126334200D0FB1AA246AB4633431847E1
:1000F0004C1D00006C1D0000103A02D378C878C176
:10010000FAD8520701D330C830C101D504680C6059
:10011000704700000023002400250026103A01D378
:1001200078C1FBD8520700D330C100D50B607047AF
:100130001FB51FBD10B510BD00F0D8F91146FFF76F
:10014000F7FF01F003FD00F0F0F903B4FFF7F2FF51
:1001500003BC00F0F7F9000070B505460C461646E2
:1001600002E00FCC0FC5103E102EFAD2082E02D39B
:1001700003CC03C5083E042E07D301CC01C5361FAE
:1001800003E021782970641C6D1C761EF9D270BDC5
:100190000748804707480047FEE7FEE7FEE7FEE71F
:1001A000FEE7FEE704480549054A064B7047000094
:1001B000E9140008B5000008700200207008002053
:1001C0007004002070040020FEB5054610460C4661
:1001D000184373D0AE468C460020AD1A01469C41B0
:1001E00067D36646002701243D46B61A9D4102D3D7
:1001F00013463A462124654676462F04360C3E4384
:100200002D0CB61A9D4104D3150C1B042B4312046C
:100210001034654676462F06360A3E432D0AB61A36
:100220009D4104D3150E1B022B4312020834654670
:1002300076462F0736093E432D09B61A9D4104D351
:10024000150F1B012B431201241D65467646AF078F
:10025000B6083E43AD08B61A9D4104D3950F9B00E6
:100260002B439200A41C65467646EF0776083E4372
:100270006D08B61A9D411AD392185B41641C16E0B2
:100280000018764665464941B71A9D410191009094
:1002900009D36046B11A98418E4684460098019968
:1002A0000025401C6941DD0752082A435B08641E93
:1002B000E6D57246634603B0F0BDFFE70020014675
:1002C000C046C0462A462346F5E7F8B5042A2CD393
:1002D000830712D00B78491C0370401C521E830701
:1002E0000BD00B78491C0370401C521E830704D0AE
:1002F0000B78491C0370401C521E8B079B0F05D0C6
:10030000C91ADF002023DE1B08C90AE0FFF724FF1B
:10031000F8BD1D4608C9FD401C46B4402C4310C022
:10032000121F042AF5D2F308C91A521EF0D40B7812
:10033000491C0370401C521EEAD40B78491C037000
:10034000401C012AE4D409780170F8BD01E004C022
:10035000091F0429FBD28B0701D50280801CC90725
:1003600000D00270704700290BD0C30702D0027082
:10037000401C491E022904D3830702D50280801C39
:10038000891EE3E70022EEE70022DFE700220309EF
:100390008B422CD3030A8B4211D300239C464EE0A0
:1003A00003460B433CD4002243088B4231D303095C
:1003B0008B421CD3030A8B4201D394463FE0C3090E
:1003C0008B4201D3CB01C01A524183098B4201D326
:1003D0008B01C01A524143098B4201D34B01C01A11
:1003E000524103098B4201D30B01C01A5241C30889
:1003F0008B4201D3CB00C01A524183088B4201D3F8
:100400008B00C01A524143088B4201D34B00C01AE3
:100410005241411A00D201465241104670475DE0F8
:10042000CA0F00D04942031000D34042534000227B
:100430009C4603098B422DD3030A8B4212D3FC2224
:10044000890112BA030A8B420CD3890192118B42A3
:1004500008D3890192118B4204D389013AD09211B9
:1004600000E08909C3098B4201D3CB01C01A524174
:1004700083098B4201D38B01C01A524143098B423D
:1004800001D34B01C01A524103098B4201D30B0126
:10049000C01A5241C3088B4201D3CB00C01A52414B
:1004A00083088B4201D38B00C01A5241D9D2430832
:1004B0008B4201D34B00C01A5241411A00D201466F
:1004C000634652415B10104601D34042002B00D5D9
:1004D0004942704763465B1000D3404201B500209B
:1004E000C046C04602BD704770477047754600F071
:1004F00025F8AE46050069465346C008C00085464B
:1005000018B020B5FFF74EFE60BC00274908B6467C
:100510000026C0C5C0C5C0C5C0C5C0C5C0C5C0C512
:10052000C0C5403D49008D46704710B50446C046E1
:10053000C0462046FFF709FE10BD00000048704786
:100540001002002001491820ABBEFEE72600020081
:10055000704772B6FEE7000070B5044600F0EEF892
:100560000546601C02D004480078241800F0E6F824
:10057000401BA042FAD370BD04000020F8B5002350
:1005800003240125BAE02E469E40B44632407CD07A
:100590000E79B607B60F012E01D0022E17D186684C
:1005A0002746B6465E00B74000967646BE43B6463E
:1005B000CF68009EB74076463743876046686746F7
:1005C000BE430F79FF06FF0F9F40374347600E7908
:1005D000F643B6070ED0C6682746B4465E00B64658
:1005E000B7406646BE43B4468F687646B740664617
:1005F0003743C7600E79B607B60F022E14D1DE0856
:10060000B60036180096366A5F07B446FE0E0F270E
:10061000B646B7406646BE43B4460F697646B74015
:1006200066463743009E376206682746B4465E003A
:10063000B646B7406646BE430F79B446BF07BF0F04
:100640007646B7406646374307604E68B603B60F36
:1006500053D02D4FBE692E43BE61BE699F08F60779
:10066000F60F2A4EBF00BE190096B6680F27B44693
:100670009E07360FB646B7406646BE430927FF06BB
:10068000B446B84202D1002710E036E0204FB8420D
:1006900001D101270AE01F4FB84201D1022705E02E
:1006A0001D4FB84201D1032700E005277646B74029
:1006B00066463743009EB760184EB6684F6896434B
:1006C000FF0200D51643154FBE60FE684F68964383
:1006D000BF0200D51643114FFE607E684F689643F7
:1006E000BF0300D516430D4F7E603E684F689643AA
:1006F000FF0300D51643094A16605B1C0A681646BC
:10070000DE4000D03FE7F8BD00100240000001408D
:100710000004004800080048000C004800040140A4
:10072000426913460B401B0491430B43836170479E
:10073000002A01D08161704781627047014880685A
:100740007047000004000020024881680278891880
:10075000816070470400002010B50648016810222F
:1007600011430160032000F007F800F027F8002093
:1007700010BD00000020024070B504460D4D7D20E4
:100780002978C000FFF702FE01460B480068FFF71A
:10079000FDFD00F077FC002809D1042C07D20022CF
:1007A0002146401E00F01EF800206C6070BD012044
:1007B00070BD0000040000201000002008B50848AB
:1007C0008169012211438161816911400091C269EF
:1007D00001040A43C261C0690840009008BD0000DE
:1007E0000010024010B501F087F810BDF8B50546BD
:1007F0000068354CC00352D5E0690026C00007D41C
:10080000E16920040143E161E169014001260091B1
:100810002E480168C90510D4016882151143016092
:10082000FFF78CFF074604E0FFF788FFC01B642832
:1008300024D826480068C005F6D5206A03273F0261
:10084000384020D06968394081421CD0206A226A31
:10085000B843012109040A432262226A8A432262C0
:100860002062C0070FD0FFF769FF009008E0FFF794
:1008700065FF0099411A1648814201D90320F8BD4D
:10088000206A8007F3D5206A6968B843084320626C
:10089000002E04D0E169012000078143E16128783E
:1008A000C00705D0206BA96880088000084320633A
:1008B0002878800605D5206B10218843E968084315
:1008C00020630020F8BD00000010024000700040CE
:1008D00088130000F8B50F46060059D03A4D286835
:1008E000C007C00FB84209D228684008400038430A
:1008F00028602868C007C00FB84249D13068334C1F
:1009000081070CD5400704D5606807210902084318
:1009100060606068F0218843B168084360603078A7
:10092000C00726D0706801280ED0216802280ED09A
:10093000890700292CDA6168890889000143616010
:10094000FFF7FCFE00900DE021688903F1E78901C3
:10095000EFE7FFF7F3FE0099411A1D48814201D9E4
:100960000320F8BD60680C21084071688900884246
:10097000EFD12868C007C00FB8420BD928684008DB
:100980004000384328602868C007C00FB84201D033
:100990000120F8BD3078400706D5606807210902BC
:1009A0008843F1680843606000F028F86168094AEC
:1009B0000906090F515CC840074908600320FFF78A
:1009C000DBFE0020F8BD00000020024000100240C5
:1009D00088130000241E0008100000200448054968
:1009E00000684968044A4905490F515CC84070478E
:1009F0001000002000100240341E000810B5104AFC
:100A000051680C200B4603400E48042B17D0082BCE
:100A100015D18B020C4C1B0FE45CD26A0A4B1207F7
:100A2000120F10339A5CC90305D500231946FFF74E
:100A3000CBFB214601E02046044900F045FF10BDF4
:100A40000010024000127A00041E000800093D0058
:100A5000FEB5040070D02078DC4DC0074AD068682D
:100A60000007800F012807D068680007800F022860
:100A700009D16868C00306D5286880033AD5606844
:100A80000028E7D036E06168012914D001208004F5
:100A9000002901D0052914D02A68012109048A43BC
:100AA0002A602968814329606068002816D0FFF712
:100AB00045FE06460EE02868012109040843286027
:100AC000F2E7296801432960F5E7FFF737FE801B4D
:100AD00064286ED828688003F7D50BE0FFF72EFE58
:100AE000064604E0FFF72AFE801B6428F1D8286838
:100AF0008003F7D420780126800700283CDA686854
:100B00000007800F07D068680007800F022809D10E
:100B10006868C00306D42868800716D5E0680128F5
:100B20000AD112E0E0680028286816D03043286017
:100B3000FFF704FE074605E043E1FFF7FFFDC01B9A
:100B40000228C6D828688007F7D52868F821884386
:100B50002169C900084328600EE040084000286071
:100B6000FFF7ECFD074604E0FFF7E8FDC01B022895
:100B7000AFD828688007F7D42078000722D5E0692D
:100B80000028686A0ED030436862FFF7D7FD074639
:100B900004E0FFF7D3FDC01B02289AD8686A8007DB
:100BA000F7D50FE0400840006862FFF7C7FD074631
:100BB00005E09DE0FFF7C2FDC01B022889D8686AE6
:100BC0008007F7D4207804274007002860DA002047
:100BD0000190E869C00008D4E969B8060143E961F9
:100BE000E969014001200091019079480168C90537
:100BF00011D40168821511430160FFF79FFD009039
:100C000005E0FFF79BFD0099401A642870D87048F2
:100C10000068C005F5D5A06801280AD0002801D0D9
:100C2000052810D0286A400840002862286AB84386
:100C300001E0286A30432862A068002812D0FFF73C
:100C40007DFD00900AE0286A38432862F1E7FFF74B
:100C500075FD0099411A5F48814249D8286A80078A
:100C6000F5D50DE0FFF76AFD009006E0FFF766FDA1
:100C70000099411A574881423AD8286A8007F5D42A
:100C80000198002804D0E969012000078143E96147
:100C90002078C00635D5606901280CD0401D686BEE
:100CA00023D038436863686B400840006863FFF7EF
:100CB00045FD064622E0686B38436863686B304345
:100CC0006863FFF73BFD064604E0FFF737FD801B36
:100CD00002285BD8686B8007F7D5686BF8218843DA
:100CE000A169C900084368630BE0B8436863F4E78F
:100CF0004CE0FFF723FD801B022847D8686B800774
:100D0000F7D4206A00285ED069680907890F022994
:100D100042D0012636060228286805D0B043286054
:100D2000FFF70CFD044633E0B0432860FFF706FDF3
:100D3000074604E0FFF702FDC01B022826D82868FA
:100D40008001F7D4E86AE16A000900010843E8621B
:100D5000616AA06A084369683D221204914308430E
:100D60006860286830432860FFF7E8FC044604E028
:100D7000FFF7E4FC001B022808D828688001F7D59B
:100D800021E0FFF7DBFC001B022801D90320FEBD98
:100D900028688001F5D416E00128F8D06868E96A6F
:100DA00001221204636A02409A420AD10907E26AE8
:100DB000090F914205D10F2189040840A16A884298
:100DC00001D00120FEBD0020FEBD00000010024049
:100DD0000070004088130000F8B504000CD0606A71
:100DE000002500280AD02561656126464036A562A7
:100DF000707F002808D00BE00120F8BD6168C81F93
:100E0000FD38F2D0E561F0E73577204600F05CF878
:100E1000022272772068016840239943016007230A
:100E2000E1681B02994201D9002001E00120000382
:100E30000F273F02B94202D0994200D0A562FF239A
:100E40006168053319402127A368BF023B4019435D
:100E500023691340227D1943D207D20F1143012386
:100E6000A2695B021A401143E26938231A40114318
:100E7000226A80231A401143A26A9B011A4011433F
:100E800022681160A1690422090C1140626A1023D2
:100E90001A401143626B08231A4011430F23E26882
:100EA0001B021A4011430122120310400143206823
:100EB00041602068C16952109143C16125660120DB
:100EC00070770020F8BD000010B586B004461421EC
:100ED0006846FFF759FA1149206888421CD110482A
:100EE000826981140A43826182690A4005924269DB
:100EF00049010A434261406908400590A0200090E2
:100F00000220019000210320039002910491092006
:100F10006946C006FFF732FB06B010BD0030014045
:100F200000100240FFB5054604464035287F0027E3
:100F300081B01646012809D001202877FFF7FEFB73
:100F40000090687F012804D0022797E0022005B0B6
:100F5000F0BD0298002874D0002E72D0032068776C
:100F6000002020660299A163A687E6872064A880F6
:100F7000E8802065E0640122A068D203402190420D
:100F800008D1206802688A430260206802680B0268
:100F90001A43026020680268520602D402680A43BB
:100FA00002600721E06809028842606828D90028A9
:100FB00001D0012E1ED1A06B21680088C86006E018
:100FC00020688168890709D5A16B0988C160A06B79
:100FD000801CA063E08F401EE0870BE0FFF7AEFBB4
:100FE0000099411A0498814202D3401C02D005E0C6
:100FF000002803D0E08F0028E2D128E003273BE05F
:10100000002801D0012E1FD1A06B21680078087341
:1010100006E020688168890709D5A16B097801730A
:10102000A06B401CA063E08F401EE0870CE0FFF740
:1010300085FB0099411A0498814203D3401C03D0D8
:10104000DCE717E00028D9D0E08F0028E1D1204666
:10105000009A049900F01AF9002801D02020206697
:10106000A068002803D12068C16880680090206EC5
:10107000002801D0012701E00120687700202877AF
:10108000384664E7094910B5401E884201D901205D
:1010900010BD074C60610321081F00F02DFC0020EB
:1010A000A06107202061002010BD0000FFFFFF00AD
:1010B00000E000E010B5040003D0E06F002802D08B
:1010C00007E0012010BD002178200155204600F0E6
:1010D00027F82420E067206801684908490001607A
:1010E000606A002802D0204600F0FFF9204600F098
:1010F000F3FA0128E6D0206841680122D202914328
:1011000041602068816808229143816020680168FD
:10111000012211430160204600F04CFA10BD00008E
:1011200010B586B0044614216846FFF72DF913491F
:10113000206888421FD112488269012189030A432D
:10114000826182690A4005924269C9000A4342618C
:101150004069084005900320400200900220019061
:10116000002002900320039001200490092069468A
:10117000C006FFF703FA06B010BD000000380140BA
:1011800000100240FEE7000030B587B01421684629
:10119000FFF7FAF8194842690121C9040A4342617C
:1011A00042690A4005924269C9000A4342614269A4
:1011B0000A400592426949110A4342614069104D53
:1011C00008400C110590002221462846FFF7B0FA8E
:1011D000009401200024019002946946284603945B
:1011E000FFF7CCF90620009009200194694602948B
:1011F000C006FFF7C3F907B030BD00000010024081
:101200000008004810B511480F490160FF21053161
:10121000416000210722816012020161C260012247
:10122000416152028261016210224162C2618162A7
:101230000722C262016308214163FFF7CDFD002848
:1012400001D0FFF786F910BD0030014004010020F5
:1012500010B50C480A4901604B2149024160002148
:101260008160C16001618161C1610C2201624261E2
:101270004162FFF71FFF002801D0FFF76AF910BD98
:101280000038014068010020FEE77047F8B50F46BE
:101290000B4615460092032104460022C90200F0C5
:1012A0001BF82026002812D13B4600228021204630
:1012B000009500F07DF8002809D103213B4600226B
:1012C00049022046009500F007F8002803D0206E60
:1012D000304320660320F8BDFFB585B00E460446B6
:1012E000002069460E9D17460871FFF727FA411B3B
:1012F0000898451AFFF722FA0390206823210C3042
:1013000002902A4800684843000D684346E00320E5
:101310004002864206D1002F04D102980178684627
:10132000017100790898401C39D0FFF707FA03993A
:10133000401AA84205D2002D03D0009800282BD0D7
:101340002BE020684168E022914341606068C11F42
:10135000FD390CD10121A068C903884202D049118E
:10136000884204D120680168402291430160012035
:10137000A16A4003814207D121680A6882430A605A
:1013800021680A6802430A60012040346077002027
:101390002077032009B0F0BD0025401E0090206892
:1013A00080683040B842B2D10020F3E7100000203E
:1013B000FFB581B01E4604460A9DFFF7BFF9401BEA
:1013C000351AFFF7BBF90746264800684001000DB3
:1013D000684339E0701C38D0FFF7B0F9C01BA84251
:1013E00005D2002D03D0009800282BD02BE02068D8
:1013F0004168E022914341606068C11FFD390CD112
:101400000121A068C903884202D04911884204D151
:10141000206801684022914301600120A16A4003D5
:10142000814207D121680A6882430A6021680A68FC
:1014300002430A60012040346077002020770320B7
:1014400005B0F0BD0025401E00902068816802981C
:10145000884305D0002103988142BBD10020EFE7EB
:101460000121F8E710000020704710B500F05CFC87
:10147000FFF76AF910BD70B594B030216846FEF7E9
:1014800083FF00240E9413940225102009940D94D8
:101490000F94049012940126009540040C9410942B
:1014A00003960A90119408950B946846FFF7D0FABA
:1014B000002801D072B6FEE707200C900E9401219F
:1014C0000D950F940CA8FFF705FA002801D072B60D
:1014D000FEE710A810961294FFF788F9002801D0B3
:1014E00072B6FEE714B070BD704710B5818C090765
:1014F00007D501684A680123DB039A43436B1A430B
:101500004A60818CC90707D001684A6801235B04DF
:101510009A43836A1A434A60818C890707D5016818
:101520004A6801231B049A43C36A1A434A60818CA8
:10153000490707D501684A6801239B049A43036B56
:101540001A434A60818CC90607D502689168012355
:101550001B039943836B19439160818C890607D5DE
:1015600001688A6801235B039A43C36B1A438A604C
:10157000818C490612D503685A6801210905046C5B
:101580008A4322435A60026C8A4207D1026851683A
:1015900003235B059943436C19435160818C090611
:1015A00007D501684A680123DB04806C9A43024333
:1015B0004A6010BDFEB507460025803704467D60B1
:1015C000FFF7BCF8019020680068264600076036E7
:1015D000002819DA274800900121002249052046F9
:1015E000019B00F011F900280ED0EFF310800121CB
:1015F00081F3108821680A6880239A430A6080F387
:1016000010882020E06729E020680068400728D57E
:10161000184800900121002289052046019B00F016
:10162000F3F800281DD0EFF31080012181F310881A
:1016300021680A68FF2321339A430A6080F31088E7
:10164000EFF31080012181F3108821688A68520825
:1016500052008A6080F3108820203860357603209D
:10166000FEBD2020E067386025666566357600207F
:10167000FEBD0000FFFFFF0110B5EFF31081012256
:1016800082F3108802681368FF242134A343136097
:1016900081F31088EFF31081012282F31088026831
:1016A00093685B085B00936081F31088016E0129E9
:1016B0000BD1EFF31081012282F3108802681368C6
:1016C0001024A343136081F31088202280210A5044
:1016D00000210166816610BD70B5044680682169ED
:1016E000E2690843616900251143226808431168D3
:1016F0003F4B1940014311602168486803221203DF
:101700009043E26810434860A169206A0843216859
:101710008A680B231B029A4302438A60354920687A
:10172000884210D13448006B8007800F0ED001280A
:1017300005D0022805D003280AD1022109E004219E
:1017400007E0082105E02D49884201D1002100E091
:1017500010210120E369C003294A2A4E834222D185
:10176000002906D0022907D0042907D0082935D13D
:1017700008E0FFF733F903E0104603E0FFF73EF916
:10178000002830D0616840004A088018FEF7FEFD4E
:1017900001461039B14221D81A49491C01400007BD
:1017A000400F08431DE0002906D0022907D0042974
:1017B00007D0082912D108E0FFF710F903E010461E
:1017C00003E0FFF71BF900280DD061684A081018E4
:1017D000FEF7DCFD01461039B14201D9012502E0D6
:1017E00080B22168C8600020A066E066284670BD0F
:1017F000F369FFFF00380140001002400044004040
:1018000000127A00EFFF0000FFB50646803605465D
:1018100081B00F460446603534E00A98401C31D050
:10182000FEF78CFF0499411A0A98814218D80028C3
:1018300016D020680168490724D5802F22D0402F78
:1018400020D0C169C94309070CD408270762204684
:10185000FFF712FF776000202876012005B0F0BD69
:101860000320FBE7C069C04300050BD401202168B9
:10187000C00208622046FFF7FFFE202070600020B3
:101880002876EDE72068C1693846884305D00021F5
:1018900003988142C1D00020E0E70121F8E7000071
:1018A00070B5084D00246000211848198278695CE1
:1018B000407800F051FA641C502CF4DB0120FEF754
:1018C0004BFE70BD14000020F8B5040C8BB2264608
:1018D00082B25E430D0C1046370C58433604801913
:1018E0000021794116466E43370C36048019794140
:1018F00026466E438919F8BD8307FF22DB0E9A4006
:101900008907090E9940002808DB830809489B00D5
:101910001B18186890430843186070470007000FB1
:101920000838830804489B001B18D8699043084373
:10193000D861704700E400E000ED00E00249C0001B
:101940004018007970470000F001002070B506468D
:10195000087B0C46012804D06088A0800025655FC4
:1019600009E02088F9E76800281880190322A11DE2
:10197000FEF7ABFC6D1C0220205E401CA842F2DC8E
:1019800070BDFFB50746002083B001900C46C988A2
:101990006846018021891D464180002B00D1012528
:1019A000207B012803D0012020732088A080042000
:1019B000205E0221615E88422EDC0026204609302E
:1019C00002900EE0A08880190221615E80B28142FF
:1019D00006DB41004018C01903220299FEF775FC8E
:1019E000761CAE42EEDB0420205E0021615E884260
:1019F0000FD000260BE00420205EA91B401A4100F6
:101A00004018C01903226946FEF75FFC761CAE42FF
:101A1000F1DBA08840191CE000260FE0A088A91B7C
:101A2000401A0221615E80B2814206DB410040180B
:101A3000C01903226946FEF748FC761CAE42EDDB76
:101A40006088A0800120019020730598012804D0AF
:101A50006088A080019807B0F0BD2088F9E7FFB545
:101A60000746002083B001900C46C9886846018073
:101A700021891D464180002B00D10125207B0228B1
:101A800003D0022020736088A0800420205E002103
:101A9000615E88422EDB00262046093002900EE06F
:101AA000A088801B0021615E80B2814206DC41007B
:101AB0004018C01903220299FEF707FC761CAE42BB
:101AC000EEDB0420205E0221615E88420FD00026FA
:101AD0000BE00420205EA91B401841004018C019EB
:101AE00003226946FEF7F1FB761CAE42F1DBA088CB
:101AF000401B1DE000260FE0A088A91B4018002114
:101B0000615E80B2814206DC41004018C0190322A8
:101B10006946FEF7DAFB761CAE42EDDB2088A0803A
:101B200001200190022020730598012801D16088CE
:101B3000A080019807B0F0BD00B5034BC2009950DA
:101B400000F0EAF800BD0000F00100206E4CA8B0E3
:101B5000A1696069019100902146C869096A0290F3
:101B60002046039124300FC80B9308AB07C367A02E
:101B700000680E9020680F9060681090A068119027
:101B800003220FA921A8FEF7E7FA21AE032210A92C
:101B9000F01CFEF79AFB032211A9B01DFEF795FB7E
:101BA000E06800251395129020691590032212A970
:101BB00024A8FEF7D1FA24AC032213A9E01CFEF7F7
:101BC00084FB032215A9A01DFEF77FFB0027FEF76B
:101BD000C3FDFFF750FCFFF7D7FAFFF713FBFFF742
:101BE00037FB780039184A480322081805A90595DB
:101BF000FEF76BFB7F1C502FF3DBFFF751FE32200B
:101C0000FEF7AAFCFFF74CFE00256E006846825BDB
:101C100028460E21484316A90A5202AA925B44188C
:101C2000628068002F1821A83918A01D0322FEF732
:101C30004CFB24A83918204609300322FEF745FB47
:101C40000EA8405D2073012827D002A8805BA080E9
:101C50006D1C032DD9DB002416AD0E206043411905
:101C60002B48FFF773FE641C032CF6DB002408AD41
:101C7000A0002958E0B2FFF75FFF641C042CF7DBDB
:101C80000124244D640321462846FEF749FD002027
:101C9000FFF754FE022802D00BE06846D6E700208A
:101CA0000899FFF749FF0423012216A91848FFF7F6
:101CB000D6FE0120FFF742FE02280AD10120099931
:101CC000FFF73AFF19A90323012202311048FFF759
:101CD00058FE0220FFF732FE022808D10A99FFF7CA
:101CE0002BFF042301221DA90948FFF7B8FE03209A
:101CF000FFF724FE0228C6D114210320FFF71CFFA2
:101D0000FFF7CEFDBFE70000D01D00080201010073
:101D10001400002000080048024A0121C000801879
:101D200001717047F001002030B5002009490223FD
:101D3000C20055182C79012C06D18C58002C03D0E8
:101D4000641E8C5000D12B71401CC0B20428EFD30C
:101D500030BD0000F0010020F0B50D461A491446D0
:101D60000A6887B0642A01DD64220A60164670435F
:101D70006421FEF715FB0746284670436421FEF7F1
:101D80000FFB0546204670436421FEF709FB014620
:101D90003A04280202430A430020694617231E26FC
:101DA0000C460C251746DF40FF0701D0265400E003
:101DB0002554401C5B1EF5D57D23DB00182203480B
:101DC000FFF7B0F807B0F0BD0000002004010020CC
:101DD0002000000000002000002000002020000063
:101DE000202020000000140028000000130027001D
:101DF0004F000000F4010000F4010000F4010000B5
:101E00001400000002030405060708090A0B0C0D64
:101E10000E0F10100102030405060708090A0B0C37
:101E20000D0E0F100000000000000000010203046E
:101E30000607080900000000010203045C1E0008F8
:101E40000000002014000000F8000008701E0008C8
:101E5000140000205C080000140100081E000000AF
:101E600001000000040000000000000000127A00E1
:04000005080000B53A
:00000001FF
